:020000040800F2
:1000000058140020010100080D5100088B3C000825
:1000100009510008F91900086F5700080000000096
:100020000000000000000000000000006D55000806
:10003000BD1A000800000000115100086F550008AB
:100040001B0100081B0100081B0100081B01000820
:100050001B0100081B0100081B0100081B01000810
:100060001B0100081B0100081B0100081B01000800
:100070001B0100081B0100081B0100081B010008F0
:100080001B0100081B0100081B0100081B010008E0
:100090001B0100081B0100081B0100081B010008D0
:1000A0001B0100081B0100081B0100081B010008C0
:1000B0001B0100081B0100081B0100081B010008B0
:1000C0001B0100081B0100081B0100081B010008A0
:1000D0001B0100081B0100081B0100081B01000890
:1000E0001B0100081B0100081B010008DFF80CD0F1
:1000F00001F09CF800480047398700085814002098
:100100000648804706480047FEE7FEE7FEE7FEE7B1
:10011000FEE7FEE7FEE7FEE7FEE7FEE7DD55000847
:10012000ED000008202A04DB203A21FA02F0002129
:10013000704721FA02F3D040C2F1200291400843F7
:100140001946704738B5D0E90221491E01EB41013B
:1001500002EBC1014268C1EB011102EB81010268AF
:10016000C1EB011102EB8102D0E9043101EB410145
:1001700003EB81013023A1F5527191FBF3F4174D8C
:100180006C4302EBC41291FBF3F403FB14110092D5
:100190001A2902DB124B1A4400920C2291FBF2F353
:1001A000104C6343009C04EBC313009391FBF2F3E8
:1001B00002FB13110C4A08E0491E40F2A324535CD1
:1001C0006343009C04EBC31300930029F4DC014655
:1001D000684600F039FE009838BD00003F0C0F0063
:1001E0008051010067C203005C96000840EA0103E9
:1001F0009B0703D009E008C9121F08C0042AFAD2DD
:1002000003E011F8013B00F8013B521EF9D27047A0
:10021000D2B201E000F8012B491EFBD27047002248
:10022000F6E710B513460A4604461946FFF7F0FFF5
:10023000204610BD30B505462A460B4612F8010B84
:1002400013F8014B08B1A042F8D01CB1002802D02D
:100250006D1CF1E7284630BD421C10F8011B002937
:10026000FBD1801A7047034611F8012B00F8012BCF
:10027000002AF9D1184670470FB400B58DB010A907
:1002800009900B9000914FF0FF300A9000200C90E5
:1002900005480690054807906A4609A80F9900F09E
:1002A0002DFE0DB05DF814FB190F0008370F000884
:1002B0002DE9FF5F1D464FF0FF3BD5E90146914612
:1002C0005F464FF00008A9697F1C01988847296A9A
:1002D000824688470028F6D1BAF1FF3F0CD024F4BB
:1002E000C064002E19DD600614D5BAF12B0F09D0B9
:1002F000BAF12D0F0ED103E0584604B0BDE8F09FCF
:1003000044F48064A9697F1C01988847761E824660
:10031000002E02DDBAF1300F03D0B9F1000F26D064
:1003200032E0A969761E44F400747F1C0198884766
:100330008246002E05DDBAF1780F06D0BAF1580FCB
:1003400003D0B9F1000F10D01EE0B9F1000F02D0B8
:10035000B9F1100F18D1A969761E24F400747F1C1E
:10036000019888478246102002E0082000E00A2019
:10037000814609E008FB0908A969761E44F4007467
:100380007F1C019888478246002E05DD494650466D
:1003900000F0A0FD0028EDDAE96901988847A00582
:1003A00002D46FF00100A8E7E00725D1600613D55D
:1003B000600502D5C8F1000000E0404629680A1D2A
:1003C0002A600968220501D5087015E0220701D5C9
:1003D000088011E008600FE02868011D29600068AE
:1003E000210502D580F8008006E0210702D5A0F89B
:1003F000008001E0C0F8008038467EE72DE9FF5F0D
:10040000D2E901A74FF00008916999461446DDF83A
:1004100038B0464601988847054659EA0B0005D092
:1004200009E0A169761C019888470546216A28469B
:1004300088470028F5D1681C03D05FEACA7005D050
:1004400015E04FF0FF3004B0BDE8F09F2068011DBB
:100450002160D0F800800AE05FEACA7001D108F894
:10046000015BA169761C7F1E019888470546002F15
:100470001ADD681C18D0B9F1000F0DD0E81705EB94
:10048000D060421120F01F0059F822102A1A0120D2
:1004900090400142E0D107E0BBF1000FDCD1216ABE
:1004A000284688470028D7D0E16901988847BBF1E2
:1004B000000F07D1002E05DD5FEACA7002D10021CE
:1004C00088F80010A068B84203DDBBF1000F03D02C
:1004D00017B16FF00100B6E73046B4E72DE9FF4FE2
:1004E000087883B09946FF2805D0491C2D2804D0F0
:1004F0000024002008E000200BE00124F9E700EBD5
:10050000800003EB4000491C0B78FF2BF7D104B1AE
:10051000404200230293147819461D462D2C01D029
:100520002B2C04D1521C2D2C13D000240294AA464B
:100530001478FF2C0FD00A25A3FB057801FB058159
:100540004FF0000C03FB0C11521CE3194AEB0101A4
:10055000EEE70124EAE7814453EA010002D019F5ED
:10056000C87F06DA03980021C0E9001107B0BDE892
:10057000F08F0025AE4E2F46DFF8B882184600F007
:10058000ECFDCDE90001B9F1000002DAC9F1000487
:1005900000E004460023A74A1AEB030B42EB045A7F
:1005A00012E0E00707D02A4633463846414600F0BD
:1005B0005CFA074688462A4633461046194600F03C
:1005C00054FA05460E466410002CEAD1DDE900011C
:1005D000B9F1000F5A46534606DA00F0B8FA3A4627
:1005E000434600F0B4FA05E000F03FFA3A464346CD
:1005F00000F03BFA029A0AB181F00041039AC2E985
:100600000001B3E72DE9FF4F1F468DB0D7E9014642
:100610004FF0FF382E2045464FF000090B90B96986
:100620006D1C0E988847396A824688470028F6D1A3
:10063000BAF1FF3F0AD024F4D064002E11DDBAF1E4
:100640002B0F08D0BAF12D0F0BD102E0404611B0AC
:100650008DE744F48064B9696D1C0E988847824622
:10066000761E6946600501D52D2000E02B208DF80F
:10067000000001F1010B0DF1200809E0B9696D1CC2
:100680000E98884782460F9844F40074761E0560E1
:10069000002E02DDBAF1300FF0D00B998A453ED121
:1006A00044F0800406E00F99681CA9F1010944F4A4
:1006B00000740860B9696D1C761E0E9888478246E2
:1006C0003028F0D02BE00B998A4505D1200603D4C1
:1006D00044F08004761E18E0504605F0D9F908B3BE
:1006E0000DF11301761E44F400748B4508D2AAF173
:1006F00030000BF8010B200607D5A9F1010003E03B
:10070000200602D409F101008146A00502D50F9907
:10071000681C0860B9696D1C0E9888478246002ED7
:10072000D1DC53E0002E51DDBAF1650F02D0BAF1F1
:10073000450F4BD1A00549D5B9696D1C24F440740F
:10074000761E0E9888478246002E0CDD2B2804D09A
:10075000BAF12D0F07D144F48074B9696D1C0E985D
:1007600088478246761EE00501D52D2100E02B2129
:1007700008F8011BCDF82C8021E00DF12901761E2F
:1007800044F4007488450CD2AAF1300010F0FF0048
:1007900088F8000002D10B99884509D908F10108B1
:1007A00006E0E00501D5244801E042F20F708146E1
:1007B000B9696D1C0E98884782460F980560002E17
:1007C00004DD504605F064F90028D6D1F9690E9889
:1007D0008847FF208BF8000088F800000020069072
:1007E00007904B466A4608A906A8FFF777FEA005C2
:1007F00002D46FF001002AE714F0240F0AD0E007BA
:1008000014D1DDE906123868031D3B600068C0E9B9
:1008100000120BE0DDE9060100F0E9FC0146E0070B
:1008200004D13868021D3A600068016028460EE76E
:10083000000014400000F03FF1D8FFFF80EA010201
:1008400010B502F00043400022D04A001FD0010E34
:1008500001EB1261C0F35600C2F3560240F40000EF
:1008600042F40002A0FB022000047F39140400D0EF
:10087000401C50EA124001D44000491EC2B20C068E
:1008800004EBD010401C4008802A02D003E0002076
:1008900010BD20F00100002900DA0020184310BD2F
:1008A00030B480EA010202F0004530F0004221F04D
:1008B000004013D090B1C30DD40DC2F31601C0F3A4
:1008C0001600E41A41F4000140F400027D34914224
:1008D00001D3641C00E04900002C02DA30BC002087
:1008E00070474FF400000023914201D3891A03435B
:1008F00040084FEA4101F7D151B1914202D14FF086
:10090000004105E002D24FF0010101E06FF001016A
:1009100003EBC450284430BC00F01EBB2DE9FE4F51
:10092000804681EA0300C00F0C46009021F0004190
:1009300023F00045B8EB0200A94105D2404621460C
:1009400090461C460B46024623F00040104347D019
:10095000270DC7F30A00C3F30A510290401A019011
:1009600040286BDAC3F3130040F4801B00989246D2
:1009700020B10023D2EB030A63EB0B0B019859461D
:10098000C0F14002504600F038FA06460D46504687
:100990005946019A00F040FA10EB0800614100242A
:1009A00087EA115284EAE7731A4340D0009A62B38F
:1009B000019A012A4FEA075215DC001B61EB020184
:1009C0004FF0004202EA0752CDE90042001C41F517
:1009D000801132462B4600F069FB03B0BDE8F08F72
:1009E00040462146F9E7001B61EB0201001C41F57E
:1009F000801300185B412018A2F5001747EB030194
:100A000040EAD570B6196D4111E06D084FEA36061F
:100A100045EAC0754FEA0752001B61EB0201001C5A
:100A200041F5801149084FEA300000195141324622
:100A30002B4603B0BDE8F04F00F029BB009801221F
:100A400040000023D0EB020263EBE07300982146E4
:100A50004FEAE074B8EB000061EB0401E9E783F0D2
:100A600000435BE781F0004158E72DE9FE4F81EA42
:100A7000030404F0004421F0004100944FF0000B07
:100A800023F0004350EA01045ED052EA03045BD035
:100A9000C3F30A54C1F30A552C44A4F2F33401946D
:100AA000A0FB0254C1F3130141F48011C3F31303FB
:100AB00043F4801301FB024400FB034E840A970AAF
:100AC00044EA815447EA8357A4FB076802958D0ADC
:100AD00005FB07854FEA932C04FB0C542705029D68
:100AE0004FEA065847EA1637B5EB08056EEB070CD8
:100AF000870E920E47EA811742EA8312A7FB020192
:100B0000B6EB0B0164EB00042B0D43EA0C335E18CB
:100B100044EB1C50DA465146E7FB0201C5F31304CF
:100B20004FEA0B3343EA14534FEA0432019C43EA81
:100B30000603A4F10C040294009CCDE900B400F07B
:100B4000B5FA03B0BDE8F08F00200146F9E72DE9C2
:100B5000F04D81EA030404F0004B21F000451446F7
:100B60004FF0000A23F0004150EA050220D054EA79
:100B700001021DD0C5F30A570246C5F31303C1F3A2
:100B80001300C1F30A5640F4801543F48013A7EB19
:100B90000608101BD64608F2FD3873EB050002D399
:100BA00008F1010801E092185B41B8F1000F03DA87
:100BB00000200146BDE8F08D00204FF4801106466C
:100BC00084460EE0171B73EB050705D3121B63EB7E
:100BD000050306434CEA010C49084FEA300092181D
:100BE0005B4150EA0107EDD152EA030012D082EADC
:100BF000040083EA0501084305D0101BAB4106D26F
:100C00000122002306E000224FF0004302E06FF0D3
:100C1000010253101AEB06004CEB085110EB0A00CE
:100C200041EB0B01BDE8F04D00F031BA96230022F4
:100C3000114600F09AB90EB5C10F80EAE070084481
:100C4000CA07002140F233438DE80E000A460B46E6
:100C500000F02CFA03B000BD0EB540F23341029112
:100C60000021CDE900110A460B4600F01FFA03B03F
:100C700000BD20F00040C10DC0F3160040F400009C
:100C80007F2901DA00207047962903DCC1F1960123
:100C9000C840704796398840704770B5C1F30A5212
:100CA00001F000450024C1F3130140F2FF3341F489
:100CB00080119A4201DA002070BD40F233439A421B
:100CC000A2F2334203DC5242FFF72CFA00E09040DC
:100CD0002C43F1D0404270BDC1F30A5210B5C1F3AC
:100CE000130140F2FF3341F480119A4201DA0020EF
:100CF00010BD40F233439A42A2F2334203DC524227
:100D0000FFF710FA10BD904010BD000030B5041E72
:100D100071F1000404DB4FF00044404264EB010138
:100D2000141E73F1000405DB1C464FF000435242D1
:100D300063EB04038B4208BF824230BD30B5041E12
:100D400071F1000404DB4FF00044404264EB010108
:100D5000141E73F1000405DB1C464FF000435242A1
:100D600063EB0403994208BF904230BD30B50B4697
:100D7000014600202022012409E021FA02F59D42CB
:100D800005D303FA02F5491B04FA02F52844151E9F
:100D9000A2F10102F1DC30BD2DE9F05F0546002033
:100DA00092469B4688460646814640241BE02846DC
:100DB000414647462246FFF7B5F953465A46C01A00
:100DC000914110D311461846224600F016F82D1A0C
:100DD00067EB01084F4622460120002100F00DF884
:100DE00017EB00094E41201EA4F10104DFDC484648
:100DF00031462A464346BDE8F09F202A04DB203ACC
:100E000000FA02F1002070479140C2F1200320FA5D
:100E100003F3194390407047202A06DBCB17203A92
:100E200041FA02F043EAE07306E041FA02F3D040EF
:100E3000C2F120029140084319467047014900F071
:100E400003B80000280E002010B500683C22B0FB5B
:100E5000F2F302FB1303B0FBF2F00B60B0FBF2F312
:100E600002FB1303B0FBF2F018224B60B0FBF2F36D
:100E700002FB1303B0FBF2F0021D8B600723B2FBF1
:100E8000F3F403FB1422800040F2B55300F66C30FB
:100E90008A61B0FBF3F2B0FBF3F403FB14004432BD
:100EA00080084A61C8613B2802D3920700D0401CE9
:100EB0000022074C13460A61E25C824203D8801A82
:100EC0005B1C0B61F8E7401CC860084610BD0000C1
:100ED000689600083A2800D2303820F02002412AD3
:100EE00001D3A2F13700884201D34FF0FF307047A1
:100EF000026811441378016018467047D1600449B4
:100F000051610449116200211161114600F0A6B936
:100F1000F10E000851120008426842B1016811F850
:100F2000013B23B1521EC0E900121846704701214F
:100F3000C160881E704742685AB1C368016843B9EE
:100F400083688B4205D0491E521CC0E90012002064
:100F500070474FF0FF3070470029A8BF7047401C12
:100F6000490008BF20F00100704710B4B0FA80FCBF
:100F700000FA0CF050EA010404BF10BC704749B1FC
:100F8000CCF1200421FA04F411FA0CF118BF01216C
:100F900021430843A3EB0C01CB1D4FEA00614FEA4C
:100FA000102042BF002010BC704700EBC35010441B
:100FB0000029A4BF10BC7047401C490008BF20F0A6
:100FC000010010BC7047F0B480EA0102D40F420067
:100FD000B2EB410F02D20246084611464A0042D007
:100FE000C30DDDB2C1F3C752AD1A202D35DAC1F3FE
:100FF000160141F4000204B15242C5F1200602FA82
:1010000006F12A411044B3EBD05F23D0C4B1012DC7
:10101000A0EBC35009DCF0BC4FF0004202EAC3521F
:10102000DBB200F50000FFF7A0BF400000F18070C8
:1010300000EBC350A0F1807040EAD170490009E094
:10104000490841EAC071A0EBC35000F50000400818
:1010500000EBC350F0BCFFF77FBF6142012202EBFF
:101060004101001BF6E7F0BC704781F00041AAE7A0
:1010700080F00040A7E7420005D0C0F3C7525242BB
:10108000914201DC0020704700EBC150704710B561
:10109000141E73F1000408DA401C41F1000192189B
:1010A0005B411A4301D120F0010010BD2DE9F04D44
:1010B00092469B4611B1B1FA81F202E0B0FA80F299
:1010C00020329046FFF799FE04460F4640EA0A0098
:1010D00041EA0B0153465A46084313D0114653EADE
:1010E000010019D0C8F140025046FFF71BF8054631
:1010F0000E46504659464246FFF77FFE084305D04C
:10110000012004E020463946BDE8F08D002005436B
:1011100046EAE0762C4337430A986305E40AA0EBDD
:1011200008000022FD0A44EA47540A3002D5002094
:101130000146E9E7010510196941DDE90845001993
:101140006941BDE8F04DA2E7C10F80EAE0700844B4
:10115000CA0796230021FFF708BF0EB540F23342BD
:1011600002920022CDE900221346FFF79FFF03B051
:1011700000BDC1F30A52C1F3130140F2FF3341F441
:1011800080119A4202DA00200146704740F2334350
:101190009A42A2F2334202DC5242FEF7C3BFFFF78B
:1011A0002CBE10B500F0004420F00040C20DC0F38A
:1011B000160040F400007F2A07DA7D2A00DA7D223B
:1011C000763A00FA02F1002008E0962A09DCA2F142
:1011D000760100FA01F1C2F19602D040FFF7BCFEA1
:1011E00001E0963A9040002C00D0404210BD01F042
:1011F000004330B421F0004150EA010206D00A0D4C
:10120000A2F56072C1F31301002A02DC30BC002099
:101210007047440F44EAC104C100E01830BC00EB41
:10122000C250FFF799BE002070470000064C074DE2
:1012300006E0E06840F0010394E8070098471034A6
:10124000AC42F6D3FEF756FFB4960008D4960008D9
:10125000C0B24FF4F05100F097B900002DE9F34F00
:101260008BB04FF0000801F10C000C464FF0010B61
:1012700046460DF1080A01906269012101989047E4
:10128000051E2DD0252D2CD0216A8847C0B162695A
:10129000012101989047216A88470028F7D1411E13
:1012A00062690198904700E0761CA1690B98884715
:1012B000216A88470028F7D1E1690B988847DBE766
:1012C000A1690B9888470746A84201D1761CD3E74D
:1012D000E1690B9888477F1C02D1B8F1000F6FD0ED
:1012E00046E1002762693D463946019890472A2821
:1012F00004D162690121019890470125DFF88492A9
:101300006269012101989047A0F130010A290AD2AF
:101310004F45E5DC07EB870100EB4107303FDFD4A9
:1013200045F01005ECE7E90601D46FF000476C28A2
:101330000AD04C2814D0682815D06A280DD07428FB
:101340001CD07A281AD01DE06269012101989047CB
:101350006C2802D045F0040514E045F002050DE0CC
:1013600045F020050AE0626901210198904768284C
:1013700002D045F0080505E045F4006562690121E9
:1013800001989047C4E9015765283DD019DC5828D9
:101390007AD00CDC452837D004DC252826D041281B
:1013A00031D131E046282FD047282CD12CE05B28C2
:1013B00077D0612828D063287CD0642823D15AE0D4
:1013C000D0E06F2848D008DC66281DD067281BD0E5
:1013D000692821D06E2816D127E0702845D07328BF
:1013E00068D0752847D078280DD14DE0A1690B98B9
:1013F0008847054625283FF469AFE1690B9888477F
:101400006D1C3FF46AAFB3E023466A466FF00100FB
:101410000B99FFF7F7F89EE045F040006060A807E1
:1014200023464FF0000236D43EE0E8077FF447AF92
:101430002068011D21600068290501D506701BE7A1
:10144000290701D5068017E7A90703D5F117C0E9D9
:10145000006111E706600FE745F040006060A807F3
:1014600023464FF0080216D41EE040F60E0125EA8E
:101470000100606016E045F040006060A807234668
:101480004FF00A0207D40FE045F040006060A80763
:1014900008D5234610226FF001000B99AFF30080AE
:1014A00059E007E0234610226FF001000B99FEF788
:1014B000FFFE50E04FF000094F464B46632802D034
:1014C0005B2806D040E0E80601D40120A060012797
:1014D0003AE062690121019890475E2805D14FF0FA
:1014E00001096269494601989047216939B900218B
:1014F0000A46534643F82120491C0829FADBB0B3B9
:10150000216969B9C11700EBD16253110AEB83015C
:1015100022F01F02821A01200B68904003430B60E7
:1015200062690121019890475D28E8D1B9F1000F67
:1015300009D00020514651F82020D24341F8202004
:10154000401C0828F7DB02AB224600976FF0010031
:101550000B99FEF753FF00280CDA401C08D1BBF1B1
:10156000000F05D04FF0FF300DB0BDE8F08FFFE762
:101570004046F9E7E90701D108F1010806444FF0B8
:10158000000B79E6CCCCCC0C7F2801D9002208E0F6
:10159000064A02EB5002C007127800D1120902F08D
:1015A0000F02012090400840704700007496000828
:1015B00070B58C1810F8015B15F0070301D110F815
:1015C000013B2A1106D110F8012B03E010F8016B42
:1015D00001F8016B5B1EF9D12B0705D40023521EC5
:1015E0000DD401F8013BFAE710F8013BCB1A921C2D
:1015F00003E013F8015B01F8015B521EF9D5A1422B
:10160000D8D3002070BD00002DE9F84300F0ACFCF9
:10161000044600F0AFFC054600F0B2FC80462B46C5
:10162000424629A12C48009404F0A4F804F0F2FFEB
:101630000746294A29A1384604F0A0FF2648D0E9E8
:101640000E43224627A1384604F07AFF2248D0E90B
:101650000A43224624A1384604F072FF1E4A403253
:1016600022A1384604F08AFF1B4A303221A13846B5
:1016700004F084FF184A423220A1384604F07EFF6D
:101680001549886DFFF7E8FA044622460B461EA16D
:10169000384604F055FF384605F020F80646304637
:1016A000FEF7DAFD0C49A1F85C020846B0F85C22AE
:1016B00031465C30FEF79AFD384604F0D1FF3046E3
:1016C00005F016F8BDE8F88325303858253038582D
:1016D0002530385800000000C80B0020757569647B
:1016E000000000006C6174006C6F6E006C617444EB
:1016F000697200006C6F6E4469720000646174610D
:1017000054696D650000000073746570436F756EF9
:10171000740000002DE9F04F95B002F097FD002015
:10172000149011E0002009905DA15F48FEF782FD52
:10173000149009AA5DA11498FEF79EFD9DF824005F
:10174000412800D101E000BFECE700BF10A80AA9C2
:101750000CAA0BABCDE90032CDE902100EAB12AAF8
:1017600055A11498FEF788FD9DF84D209DF84C007A
:101770009DF84B109DF84A30CDE90631CDE90802BD
:101780009DF849009DF848109DF841209DF8403093
:10179000CDE90232CDE904109DF843009DF84210D6
:1017A000CDE900109DF845309DF844204DA15548E5
:1017B00003F0E0FF5349084600F026F90022524B9F
:1017C000DDE90E01FFF7C3F90646FFF785FAC0B25F
:1017D000642148430790FFF72EFA0446DDE90E2303
:1017E000FFF740F980460022484BFFF7B0F98246E8
:1017F0008B460022444BDDE90E01FFF7A8F90446B1
:10180000FFF76AFAC6B23046FFF726FA52465B4641
:10181000CDE90801FFF782F83A4A423AC2E90E01DF
:101820000022394BDDE90C01FFF791F98046FFF703
:1018300053FAC0B2642100FB01FA5046FFF7FBF9EE
:101840000646DDE90C23FFF70DF9044600222F4B75
:10185000FFF77DF900222C4BCDE90801DDE90C01F1
:10186000FFF775F90546FFF737FAC4B22046FFF7D0
:10187000F3F9CDE90601DDE90823FFF74FF8214A26
:10188000423AC2E90A019DF82C00114681F8400055
:101890009DF8280081F8300015B0BDE8F08F0000F9
:1018A00024474E524D43000088060020252A5B5EE7
:1018B00041565D256300000024474E524D432C25C0
:1018C0003663252A36632C256C662C25632C256C03
:1018D000662C25632C252A662C252A662C25366342
:1018E000000000003230256325632D256325632D1C
:1018F0002563256320256325633A256325633A25FF
:10190000632563000A0C00200000594000004E408F
:1019100008B502F0D9FC00200090684602F00AFDEC
:1019200001490098886508BDC80B002070B503F018
:1019300033F91648B0F85C125C3003F0BFF9054685
:101940001DB302F0ADFD002410E0C4EB04220F49EA
:101950005C315018FF2103F057F8601CC4B20B48EB
:10196000B0F85C02FF380949A1F85C020748B0F8FA
:101970005C02FF28E9DC054AB2F85C12C4EB0423E0
:101980005C32981803F040F800BF70BDC80B00200F
:101990000EB502F043FC03F0D1F8002202A9114871
:1019A00001F0A6FA9DF808008DF800009DF80900E6
:1019B0008DF801009DF80A001430C0B28DF80200C5
:1019C00000226946074801F015FB4FF40030064934
:1019D000086008604FF47A7000F010F800F01EFF05
:1019E0000EBD0000440300201404014010B503F0B4
:1019F000B3F802F01DFC10BD00BFFEE710B50446B1
:101A0000204600F05FF810BD70B596B006460D4652
:101A100005A806A907AA08ABCDE90032CDE9021056
:101A200009AB0AAA18A13046FEF726FC0A98A0F2D4
:101A30006C7010900998401E0F9008980E900798AF
:101A40000D9006980C9005980B900BA8FEF77AFB6A
:101A50000490049800F5E140049004A8FFF7EEF923
:101A6000044694E80B00E268CDE90023CDE90210BA
:101A70002069431C606900F26C7208A1284603F0DB
:101A800079FE16B070BD000025642D25642D2564F7
:101A90002025643A25643A2564000000253034642A
:101AA0002D253032642D2530326420253032643AC1
:101AB000253032643A25303264000000704772B637
:101AC00000BFFEE770B5044600F048FA064625461A
:101AD000681C10B104480078054400BF00F03EFACD
:101AE000801BA842FAD370BD080000202DE9F04108
:101AF00002460B46002080E00127874007EA0301E9
:101B0000002979D0404F4FEA900C57F82C408707B6
:101B10004FEA177C0F2707FA0CF73C403B4FBA42BD
:101B200001D100270FE03A4FBA4201D101270AE064
:101B3000384FBA4201D1022705E0374FBA4201D1EE
:101B4000032700E004274FEA807C4FEA1C7C07FA59
:101B50000CF7A74231D1314F3F688F43DFF8BCC04B
:101B6000CCF800700CF104073F688F430CF1040CB3
:101B7000CCF80070294F0C373F688F43DFF89CC0CA
:101B80000CF10C0CCCF80070ACF104073F688F43EB
:101B9000ACF1040CCCF8007087074FEA177C0F27D4
:101BA00007FA0CF4184F4FEA900C57F82CC02CEAA7
:101BB000040C4FEA900847F828C0FF2901D81746BF
:101BC00000E0171D3D46FF2901D8870002E0A0F183
:101BD0000807BF003E462F684FF00F0C0CFA06FCBA
:101BE00027EA0C074FF0040C0CFA06FC47EA0C0736
:101BF0002F60D7688F43D760401C23FA00F7002F6F
:101C00007FF47AAFBDE8F081080001400008014090
:101C1000000C01400010014000140140000401408C
:101C20002DE9F8470346002294466EE14FF0010883
:101C300008FA02F4D1F8008008EA0400A0427DD13D
:101C4000DFF8DCA2D1F80480A8EB0A09D0453AD02D
:101C500014DCB8F1030F50D009DCB8F1000F31D01B
:101C6000B8F1010F1CD0B8F1020F49D120E0B8F152
:101C7000110F18D0B8F1120F42D11EE0B9F5881F2C
:101C800025D006DCB9F5803F20D0B9F5801F37D1CB
:101C90001AE0B9F5001F18D0B9F5041F30D117E0CC
:101CA000D1F80CC02DE0D1F80C8008F1040C28E02C
:101CB000D1F80C8008F1080C23E0D1F80C8008F171
:101CC0000C0C1EE000BF00BF00BF00BF00BF00BF84
:101CD000D1F80880B8F1000F02D14FF0040C0BE0EE
:101CE000D1F80880B8F1010F03D14FF0080C1C6146
:101CF00002E04FF0080C5C6103E04FF0000C00E0E4
:101D000000BF00BFFF2801D8984601E003F1040896
:101D10004646FF2802D84FEA820803E0A2F10808ED
:101D20004FEA88084746D6F800804FF00F0909FAB5
:101D300007F928EA09080CFA07F900E088E048EA00
:101D40000908C6F80080D1F8048008F08058B8F17E
:101D5000805F7DD100BFDFF8CC81D8F8188048F0D3
:101D60000108DFF8C091C9F81880C846D8F8188073
:101D700008F00108CDF8008000BF00BF4FEAB93875
:101D80004FEA920958F829504FEA82784FEA1879B9
:101D90004FF00F0808FA09F825EA0805DFF88881EE
:101DA000434502D14FF0000816E0DFF8808143453B
:101DB00002D14FF001080FE0DFF87481434502D1F2
:101DC0004FF0020808E0DFF86C81434502D14FF084
:101DD000030801E04FF004084FEA82794FEA1979CD
:101DE00008FA09F848EA0505DFF84C814FEA92093C
:101DF00048F82950D1F8048008F48018B8F5801FFD
:101E00000AD1DFF83881D8F8008048EA0008DFF806
:101E10002C91C9F8008009E0DFF82081D8F8008013
:101E200028EA0008DFF81491C9F80080D1F804808E
:101E300008F40018B8F5001F10D1DFF8008108F190
:101E40000408D8F8008048EA0008DFF8F09000E0C5
:101E50005AE009F10409C9F800800DE0DFF8DC80E0
:101E600008F10408D8F8008028EA0008DFF8CC90D0
:101E700009F10409C9F80080D1F8048008F4003899
:101E8000B8F5003F0ED1DFF8B480A8F10408D8F807
:101E9000008048EA0008DFF8A490A9F10409C9F815
:101EA00000800DE0DFF89480A8F10408D8F80080E5
:101EB00028EA0008DFF88490A9F10409C9F8008035
:101EC000D1F8048008F48038B8F5803F0ED1DFF8EF
:101ED0006C80A8F10808D8F8008048EA0008DFF80C
:101EE0005C90A9F10809C9F800800DE0DFF84C808A
:101EF000A8F10808D8F8008028EA0008DFF83C902C
:101F0000A9F10809C9F80080521CD1F8008028FA0C
:101F100002F8B8F1000F7FF489AEBDE8F887000041
:101F2000000011100010024000080140000C0140A8
:101F30000010014000140140080001400804014065
:101F4000024693680B400BB1012000E0002070476F
:101F50000AB1016101E00B040361704701480068A8
:101F60007047000000000020014800687047000032
:101F7000E8F7FF1F0148006870470000ECF7FF1FFB
:101F80000148006870470000F0F7FF1F70B5044675
:101F90000CB9012070BD94F83D0028B9002084F8E8
:101FA0003C00204600F03EFB242084F83D002068E1
:101FB000006820F00100216808602068006840F493
:101FC0000040216808602068006820F40040216813
:101FD000086000F003FD05465C496068884206D849
:101FE0005B48854201D2012007E0002005E0594806
:101FF000854201D2012000E00020012800D1C9E77C
:102000005548B5FBF0F62068406820F03F003043AB
:10201000216848604D496068884201D8701C07E01B
:102020004FF4967070434FF47A71B0FBF1F0401C9E
:102030002168096A21F03F01084321680862434989
:102040006068884214D8681E61684900B0FBF1F0EE
:10205000401CC0F30B00042801D204203DE0681EA0
:1020600061684900B0FBF1F0401CC0F30B0034E0A4
:10207000A06838B9681E616801EB4101B0FBF1F05E
:10208000401C0AE0681E616801EBC10202EB01110D
:10209000B0FBF1F0401C40F48040C0F30B0008B9E5
:1020A00001201AE0A06848B9681E616801EB41018F
:1020B000B0FBF1F0401CC0F30B000CE0681E61683F
:1020C00001EBC10202EB0111B0FBF1F0401CC0F3C7
:1020D0000B0040F4804040F400402168C9694CF690
:1020E000FF72914308432168C861D4E9070108439E
:1020F0002168096821F0C001084321680860D4E91B
:10210000031008432168896848F2FF32914308436D
:1021100021688860D4E9050108432168C96821F075
:10212000FF0108432168C8602068006840F0010092
:102130002168086000202064202084F83D000020F1
:10214000206384F83E0000BF24E70000A086010061
:1021500080841E0000093D0040420F002DE9FE4F23
:1021600004460F4690469946DDE90CAB0E9E0020D2
:102170000290FFF7F3FE054694F83D00202872D147
:1021800019230122CA492046009501F0F2FE10B140
:102190000220BDE8FE8F00BF94F83C00012801D169
:1021A0000220F6E7012084F83C0000BF20680068A8
:1021B00000F0010028B92068006840F001002168A3
:1021C00008602068006820F4006021680860222010
:1021D00084F83D00402084F83E0000202064C4F8CC
:1021E00024A0A4F82AB0608D2085B248E0624B4656
:1021F000424639462046CDE9006501F067FD08B149
:102200000120C6E7208D88B900BF0020019020681A
:102210004069019020688069019000BF00BF20687C
:10222000006840F40070216808604BE0208D0128B0
:102230001AD12068006820F480602168086072B6B6
:1022400000BF0020019020684069019020688069EB
:10225000019000BF00BF2068006840F40070216852
:10226000086062B62EE020E1208D022819D1206896
:10227000006840F400602168086072B600BF00206A
:10228000019020684069019020688069019000BF3A
:1022900000BF2068006820F480602168086062B692
:1022A00010E02068006840F480602168086000BF8A
:1022B00000200190206840690190206880690190A9
:1022C00000BF00BFE2E0208D03287DD8208D0128CB
:1022D00015D12A463146204601F027FF08B10120DA
:1022E00057E720680069616A0870606A401C606294
:1022F000208D401E2085608D401E6085C6E0208DAB
:1023000002282CD1334600226B492046009501F06B
:1023100030FE08B101203CE772B62068006840F446
:1023200000702168086020680069616A0870606A4E
:10233000401C6062208D401E2085608D401E60859F
:1023400062B620680069616A0870606A401C606259
:10235000208D401E2085608D401E608596E03346AE
:10236000002255492046009501F003FE08B10120E6
:102370000FE72068006820F480602168086072B66A
:1023800020680069616A0870606A401C6062208D84
:10239000401E2085608D401E6085484800681921D8
:1023A000B0FBF1F04FF47A71B0FBF1F0C0EBC0007C
:1023B00000EB8000029000BF0298401E029002983D
:1023C000A8B90020206300E039E0202084F83D0017
:1023D000002084F83E00206C40F02000206462B6AB
:1023E00000BF002084F83C0000BF0120D1E6206837
:1023F0004069C0F380000028DED02068006840F407
:1024000000702168086020680069616A0870606A6D
:10241000401C6062208D401E2085608D401E6085BE
:1024200062B620680069616A0870606A401C606278
:10243000208D401E2085608D401E608526E02A4646
:102440003146204601F071FE08B10120A1E6206866
:102450000069616A0870606A401C6062208D401EDD
:102460002085608D401E608520684069C0F3800033
:1024700060B120680069616A0870606A401C60622F
:10248000208D401E2085608D401E6085208D002897
:102490007FF419AF202084F83D00002084F83E002E
:1024A00000BF84F83C0000BF73E6022071E6000024
:1024B000020010000000FFFF040001000C000020DB
:1024C0002DE9FC5F04460F4690469946DDE90CABCA
:1024D0000E9EFFF743FD054694F83D0020287DD170
:1024E000192301224D492046009501F042FD10B10B
:1024F0000220BDE8FC9F00BF94F83C00012801D1F8
:102500000220F6E7012084F83C0000BF2068006844
:1025100000F0010028B92068006840F0010021683F
:1025200008602068006820F40060216808602120AD
:1025300084F83D00402084F83E0000202064C4F868
:1025400024A0A4F82AB0608D20853548E0624B466F
:10255000424639462046CDE9006501F067FC08B1E6
:102560000120C6E731E02A463146204601F022FE2E
:1025700050B1206C042805D12068006840F4007038
:10258000216808600120B4E7606A0078216808616A
:10259000606A401C6062208D401E2085608D401E58
:1025A000608520684069C0F3800070B1208D60B103
:1025B000606A007821680861606A401C6062208D52
:1025C000401E2085608D401E6085208D0028CAD168
:1025D0002A463146204601F099FC00E01CE050B14B
:1025E000206C042805D12068006840F40070216840
:1025F000086001207DE72068006840F400702168D1
:102600000860202084F83D00002084F83E0000BFD0
:1026100084F83C0000BF6CE702206AE7020010006B
:102620000000FFFF10B586B0044600200290039022
:102630000490059015492068884225D100BF1448B0
:10264000806940F00800124988610846806900F0FE
:102650000800019000BF00BFC0200290122003902C
:102660000320059002A90B48FFF7DAFA00BF0848DB
:10267000C06940F400100649C8610846C06900F40A
:102680000010019000BF00BF06B010BD0054004014
:1026900000100240000C014003480068034909781B
:1026A000084401490860704700000020080000202D
:1026B00010B50848006840F0100006490860032083
:1026C00000F098F80F2000F007F800F02BF8002039
:1026D00010BD00000020024070B504460E4800788E
:1026E0004FF47A71B1FBF0F00C490968B1FBF0F5D9
:1026F000284601F07AF808B1012070BD102C07D2ED
:1027000000222146501E00F037F80548046001E021
:102710000120F2E70020F0E7080000200C00002074
:102720000400002008B500BF1148806940F0010096
:102730000F4988610846806900F00100009000BFE1
:1027400000BF00BF0846C06940F08050C86108461D
:10275000C06900F08050009000BF00BF00BF054975
:10276000486820F0E06040F00070486000BF08BD9D
:1027700000100240000001402DE9F05F80460D4648
:102780001646002703F026F8074639462A46334600
:1027900001F00700C0F1070ABAF1040F02D94FF0A7
:1027A000040A01E0C0F1070AD14600F1040ABAF1B7
:1027B000070F02D24FF0000A01E0A0F1030AD4464D
:1027C0004FF0010A0AFA09FAAAF1010A0AEA020A12
:1027D0000AFA0CFA4FF0010B0BFA0CFBABF1010BF0
:1027E0000BEA030B4AEA0B042146404602F0FAFFCB
:1027F000BDE8F09F00BF00F00702064B19684FF6D6
:10280000FF031940044B0B4343EA0221014B1960BB
:1028100000BF70470CED00E00000FA0507480068B3
:1028200040F00200054908600548006840F00400D7
:102830000349086000BF00BF30BF70470070004010
:1028400010ED00E070B504460D460CB9012070BDD6
:102850005A48006800F00700A8420ED257480068A6
:1028600020F007002843554908600846006800F03A
:102870000700A84201D00120E9E7207800F002001B
:1028800002281DD1207800F00400042805D14C480E
:10289000406840F4E0604A494860207800F0080051
:1028A000082805D14648406840F4605044494860D3
:1028B0004348406820F0F000A16808434049486060
:1028C000207800F0010078B36068012806D13C4808
:1028D000006800F4003090B90120B8E76068022871
:1028E00006D13748006800F0007040B90120AEE71B
:1028F0003348006800F0020008B90120A7E730481B
:10290000406820F00300616808432D494860FFF7E4
:1029100025FB064609E0FFF721FB801B41F28831C9
:10292000884202D9032092E707E02548406800F07A
:102930000C006168B0EB810FEDD12048006800F019
:102940000700A8420ED91D48006820F00700284360
:102950001A4908600846006800F00700A84201D044
:10296000012074E7207800F00400042807D11448FF
:10297000406820F4E060E16808431149486020782D
:1029800000F00800082808D10D48406820F4605085
:10299000216940EAC1000A49486000F03FF808494F
:1029A0004968C1F30311074A515CC84006490860F1
:1029B00006480068FFF790FE002048E7002002402C
:1029C00000100240049500080C00002004000020C4
:1029D00001480068704700000C00002000B5FFF7B8
:1029E000F7FF04494968C1F30221034A515CC8401A
:1029F00000BD0000001002401495000800B5FFF76C
:102A0000E7FF04494968C1F3C221034A515CC84049
:102A100000BD0000001002401495000870B50021B0
:102A20000022002400230020134D696801F00C05EA
:102A3000F5B1042D02D0082D19D101E00F4819E09D
:102A40000F4DC1F38346AB5D01F4803555B10A4D9E
:102A50006D68C5F340450B4E725D084D5D43B5FB97
:102A6000F2F402E0084D03FB05F4204602E000BF4B
:102A7000024800BF00BF70BD0010024000127A0083
:102A8000F29400080295000800093D00F8B50446DC
:102A90000CB90120F8BD207800F00100002878D0A2
:102AA000F848406800F00C0004280CD0F548406855
:102AB00000F00C00082811D1F248406800F4803082
:102AC000B0F5803F0AD1EF48006800F400300028DC
:102AD0005FD0606800285CD10120DBE700BF606840
:102AE000B0F5803F06D1E748006840F48030E54902
:102AF000086028E0606858B9E248006820F4803037
:102B0000E04908600846006820F4802008601AE068
:102B10006068B0F5A02F0BD1DA48006840F480203F
:102B2000D84908600846006840F4803008600AE030
:102B3000D448006820F48030D24908600846006814
:102B400020F48020086000BF606888B1FFF706FAB3
:102B5000054606E0FFF702FA401B642801D903206E
:102B600098E7C848006800F400300028F2D010E070
:102B7000FFF7F4F9054606E0FFF7F0F9401B64287B
:102B800001D9032086E7BF48006800F40030002820
:102B9000F2D1207800F00200022857D1B9484068ED
:102BA00000F00C0050B1B748406800F00C00082855
:102BB00018D1B448406800F4803098B9B148006832
:102BC00000F0020020B12069012801D0012061E756
:102BD000AC48006820F0F800616940EAC100A949EA
:102BE000086033E02069E8B10120A7490860FFF7D9
:102BF000B5F9054606E0FFF7B1F9401B022801D9F7
:102C0000032047E79F48006800F002000028F2D048
:102C10009C48006820F0F800616940EAC1009949C9
:102C2000086013E0002098490860FFF797F905460F
:102C300006E0FFF793F9401B022801D9032029E79A
:102C40009048006800F002000028F2D1207800F0DF
:102C5000080008282DD1A069B8B101208B4908606F
:102C6000FFF77CF9054606E0FFF778F9401B0228DC
:102C700001D903200EE78348406A00F002000028D3
:102C8000F2D0012002F046FA13E000207F490860EC
:102C9000FFF764F9054606E0FFF760F9401B0228DC
:102CA00001D90320F6E67748406A00F002000028C8
:102CB000F2D1207800F00400042873D10027714875
:102CC000C06900F0805070B900BF6E48C06940F024
:102CD00080506C49C8610846C06900F0805000907F
:102CE00000BF00BF01276A48006800F48070B0B9D7
:102CF0006748006840F4807065490860FFF72EF966
:102D0000054606E0FFF72AF9401B642801D9032095
:102D1000C0E65F48006800F480700028F2D000BF71
:102D2000E068012806D15748006A40F00100554983
:102D3000086227E0E06858B95248006A20F00100B4
:102D4000504908620846006A20F00400086219E051
:102D5000E06805280BD14B48006A40F0040049495F
:102D600008620846006A40F0010008620AE045482F
:102D7000006A20F00100434908620846006A20F01A
:102D80000400086200BFE068A0B1FFF7E7F805465D
:102D900009E0FFF7E3F8401B41F28831884202D98D
:102DA000032077E622E03748006A00F0020000289E
:102DB000EFD012E0FFF7D2F8054608E0FFF7CEF8B3
:102DC000401B41F28831884201D9032062E62D4838
:102DD000006A00F002000028F0D1012F05D1294837
:102DE000C06920F080502749C86100BFE069C8B3BE
:102DF0002448406800F00C00082860D0E0690228F0
:102E000048D1002020490866FFF7A8F8054606E0EB
:102E1000FFF7A4F8401B022801D903203AE619481D
:102E2000006800F000700028F2D1206AB0F5803F01
:102E300007D11448406820F40030A16808431149C4
:102E40004860D4E9080108430E49496821F4741127
:102E500008430C49486001200B490866FFF77EF8DB
:102E6000054607E03DE0FFF779F8401B022801D94D
:102E700003200FE60348006800F000700028F2D03D
:102E80002FE0000000100240000042428004424255
:102E900000700040002014490866FFF75FF80546FF
:102EA00006E0FFF75BF8401B022801D90320F1E59B
:102EB0000E48006800F000700028F2D111E0E069CF
:102EC000012800D1E6E50948466806F48031206A09
:102ED000814204D106F47011606A814201D0012060
:102EE000D8E50020D6E50000000042420010024074
:102EF0002DE9F04780460C46914600250026AA465B
:102F00000027B8F1000F00D014B90120BDE8F08708
:102F1000D8F800004068C0F3800008B10120F5E750
:102F2000404602F0DDF905464FF46160B5FBF0F76D
:102F3000B5FBF0F100FB11503C21B0FBF1F06070EB
:102F40004FF46160B5FBF0F100FB11503C21B0FB88
:102F5000F1F201FB1200A070182F39D31820B7FB33
:102F6000F0FAB7FBF0F100FB11702070404602F060
:102F7000ABF90646701C18B1AE4201D9761B01E0D0
:102F80004FF0FF360AEB4A00C000C0EB4011C1EB26
:102F90000020A5EB00152946404602F014FA08B1BE
:102FA0000120B3E7701C38B12E443146404602F090
:102FB000F3F940B10120A9E73146404602F0ECF9AF
:102FC00008B10120A2E75146404602F0CFF800E0E8
:102FD0002770B9F1000F0BD0207802F0BAF82070FA
:102FE000607802F0B6F86070A07802F0B2F8A070D5
:102FF00000208BE72DE9F84304460D4617460026CE
:103000000020009004B115B90120BDE8F88300BF8D
:10301000207C012801D10220F7E70120207400BFA5
:1030200002206074002269462046FFF761FF08B164
:103030000120EAE79DF800004FF4616148439DF8E4
:103040000110C1EB011100EB81009DF8021000EBB3
:1030500001085FB928784FF4616148436978C1EB92
:10306000011100EB8100A978461812E0287802F0DF
:1030700065F84FF4616100FB01F9687802F05EF8D1
:10308000C0EB001009EB8009A87802F057F809EBB3
:103090000006464501D20B4806443146204602F060
:1030A0007BF938B10420607400BF0020207400BF99
:1030B0000120AAE70120607400BF0020207400BF37
:1030C00000BFA2E78051010010B504460CB90120F1
:1030D00010BD022084F851002068006820F04000F4
:1030E00021680860204600F069F80020606584F8D7
:1030F000510000BF84F8500000BF00BFE8E710B5E2
:1031000004460CB9012010BD606A38B96068B0F59A
:10311000827F00D105E00021E16102E00021216110
:1031200061610021A16294F8510028B9002084F85F
:103130005000204600F05AF8022084F85100206820
:10314000006820F0400021680860A08800F48270C8
:10315000218901F404410843A18901F40061084375
:10316000217C01F002010843217D01F001010843A7
:10317000218B01F400710843217F01F038010843DD
:103180002021095D01F080010843218D01F40051E7
:103190000843216808600421A06901EA1040216801
:1031A00048602068C06920F400602168C861002080
:1031B0006065012084F851000020A4E710B50446A2
:1031C00007492068884209D10648806920F4805068
:1031D00004498861E0210448FEF788FC10BD000026
:1031E00000300140001002400008014010B586B0D8
:1031F000044600200290039004900590194920682D
:1032000088422DD100BF1848806940F4805016498B
:1032100088610846806900F48050019000BF00BFBB
:1032200000BF0846806940F0040088610846806954
:1032300000F00400019000BF00BFA0200290022017
:1032400003900320059002A90848FEF7E9FC4020FE
:10325000029000200390049002A90448FEF7E0FCCD
:1032600006B010BD003001400010024000080140CF
:103270002DE9F8430446884616461D464FF00009DE
:1032800094F85100012802D04FF00209A8E06068CC
:10329000B0F5827F0DD1A06858B9042084F85100A0
:1032A0003346424641462046009500F07EF9BDE88F
:1032B000F88300BF94F85000012801D10220F6E7FE
:1032C000012084F8500000BFFEF748FE0746B8F121
:1032D000000F00D016B94FF0010981E0042084F8F6
:1032E000510000206065C4F83880A687E687206317
:1032F000A086E08620646064A068B0F5004F0BD122
:103300002068006820F0400021680860206800689C
:1033100020F48040216808602068006800F04000C8
:10332000402805D02068006840F04000216808600F
:10333000E06810BB1DE02068806800F0010050B11B
:103340002068007BA16B0870A06B401CA063E08F1D
:10335000401EE0870DE0FEF701FEC01BA84201D32E
:10336000681C00B92DB94FF00309012084F8510001
:1033700036E0E08F0028DED121E01DE02068806883
:1033800000F0010050B12068C068A16B0880A06BFC
:10339000801CA063E08F401EE0870DE0FEF7DEFD9D
:1033A000C01BA84201D3681C00B92DB94FF0030916
:1033B000012084F8510013E0E08F0028DED13A4666
:1033C0002946204602F016F808B120206065606D9D
:1033D00010B14FF0010902E0012084F8510000BF54
:1033E00000BF002084F8500000BF48465FE72DE989
:1033F000F84F0446884616461D464FF0000A00BFA7
:1034000094F85000012802D10220BDE8F88F012075
:1034100084F8500000BFFEF7A1FD0746B14694F8BE
:103420005100012802D04FF0020AB7E0B8F1000FB6
:1034300000D016B94FF0010AB0E0032084F8510023
:1034400000206065C4F83080A686E686A063A08769
:10345000E08760642064A068B0F5004F0BD120685D
:10346000006820F04000216808602068006840F48F
:103470008040216808602068006800F04000402813
:1034800005D02068006840F0400021680860E068CE
:10349000B0F5006F32D1606810B1B9F1010F09D1F8
:1034A000206B00882168C860206B801C2063E08E40
:1034B000401EE0861EE02068806800F002000228BE
:1034C0000AD1206B00882168C860206B801C2063B3
:1034D000E08E401EE0860DE0FEF740FDC01BA842D6
:1034E00001D3681C00B92DB94FF0030A012084F8FC
:1034F000510053E0E08E0028DDD131E0606810B16A
:10350000B9F1010F09D1206B007821680873206B95
:10351000401C2063E08E401EE0861EE0206880682C
:1035200000F0020002280AD1206B0078216808739D
:10353000206B401C2063E08E401EE0860DE0FEF70D
:103540000DFDC01BA84201D3681C00B92DB94FF076
:10355000030A012084F8510020E0E08E0028DDD12C
:103560003A462946204601F081FF08B120206065D7
:10357000A06850B900BF002000902068C06800908B
:1035800020688068009000BF00BF606D10B14FF0F0
:10359000010A02E0012084F8510000BF00BF0020B2
:1035A00084F8500000BF50462FE72DE9FF5F044626
:1035B000884691461D460E9E0120029000200190F3
:1035C00000BF94F85000012803D1022004B0BDE8E8
:1035D000F09F012084F8500000BFFEF7BFFC0746B3
:1035E00094F851B060680390AA46BBF1010F0BD06C
:1035F0000398B0F5827F04D1A06810B9BBF1040F25
:1036000002D002200190E9E0B8F1000F03D0B9F137
:10361000000F00D015B901200190DFE094F85100AF
:10362000042802D0052084F8510000206065C4F809
:103630003890E587A587C4F83080E586A5862064A4
:1036400060642068006800F04000402805D02068D1
:10365000006840F0400021680860E068B0F5006F45
:103660004DD1606810B1BAF1010F09D1206B00880B
:103670002168C860206B801C2063E08E401EE086BD
:1036800036E02068806800F00200022810D1E08E49
:1036900070B1029801280BD1206B00882168C860A6
:1036A000206B801C2063E08E401EE086002002908C
:1036B0002068806800F0010068B1E08F58B1206890
:1036C000C068A16B0880A06B801CA063E08F401EC7
:1036D000E08701200290FEF741FCC01BB04207D3F7
:1036E000701C28B103200190012084F8510075E07E
:1036F000E08E0028C5D1E08F0028C2D14DE060687F
:1037000010B1BAF1010F09D1206B0078216808735C
:10371000206B401C2063E08E401EE08637E020686E
:10372000806800F00200022810D1E08E70B102988B
:1037300001280BD1206B007821680873206B401C96
:103740002063E08E401EE0860020029020688068A2
:1037500000F0010068B1E08F58B12068C068A16B2B
:103760000870A06B401CA063E08F401EE087012022
:103770000290FEF7F3FBC01BB04201D3701C00B9EE
:103780002EB903200190012084F8510026E0E08E3C
:103790000028C4D1E08F0028C1D13A4631462046E6
:1037A00001F064FE20B1012001902020606515E049
:1037B000A06850B900BF002000902068C068009049
:1037C00020688068009000BF00BF606D10B10120CC
:1037D000019002E0012084F8510000BF00BF0020EA
:1037E00084F8500000BF0198F0E670B50446254605
:1037F000681EB0F1807F01D301200FE0681E4FF0FA
:10380000E02148610F214FF0FF3001F0EBFF002075
:103810004FF0E021886107200861002070BD2DE98C
:10382000F84F04460F4690461D46DDF828A094F850
:103830004200202878D117B1B8F1000F02D1012041
:10384000BDE8F88F00206064222084F84200012047
:10385000206300206063FEF781FB8346A4F82C8080
:10386000A4F82E80A068B0F5805F04D1206910B95B
:103870000026B94602E03E464FF0000900202880AD
:1038800053E02068006800F01000102813D100BF3A
:103890000020009020680068009020684068009038
:1038A00000BF00BF288830B102206063202084F868
:1038B00042000020C4E72068006800F020002028B3
:1038C00021D146B920684068C0F30800A9F800007B
:1038D00009F1020911E0A068B0F5805F03D0A0688B
:1038E00028B9206918B920684068307004E0206861
:1038F000406800F07F003070761C2888401C2880CB
:10390000E08D401EE0850AF1010070B1FEF726FB54
:10391000A0EB0B00504502D8BAF1000F05D12020D2
:1039200084F8420003208BE70BE0E08D0028A8D14B
:10393000A08DE18D401A2880202084F842000020CC
:103940007EE702207CE710B504460CB9012010BDCB
:10395000A06900B100E000BF94F8410028B9002040
:1039600084F84000204600F029F8242084F8410023
:103970002068C06820F400502168C860204601F02B
:103980002FFE2068006920F49040216808612068BB
:10399000406920F02A00216848612068C06840F42E
:1039A00000502168C86000206064202084F8410035
:1039B00084F842000020606300BFC8E710B586B0FD
:1039C0000446002002900390049005904D49206821
:1039D00088422FD100BF4C48806940F480404A495A
:1039E00088610846806900F48040019000BF00BFF4
:1039F00000BF0846806940F004008861084680697D
:103A000000F00400019000BF00BF481502900220A2
:103A100003900320059002A93C48FEF701F94FF4FA
:103A20008060029000200390049002A93748FEF7BE
:103A3000F7F865E03649206888422ED100BF324849
:103A4000C06940F400303049C8610846C06900F4DC
:103A50000030019000BF00BF00BF0846806940F001
:103A6000040088610846806900F00400019000BFEE
:103A700000BF04200290022003900320059002A9B9
:103A80002248FEF7CDF80820029000200390049011
:103A900002A91E48FEF7C4F832E01E492068884299
:103AA0002ED100BF1848C06940F480201649C86173
:103AB0000846C06900F48020019000BF00BF00BF2D
:103AC0000846806940F0080088610846806900F077
:103AD0000800019000BF00BF08150290022003906B
:103AE0000320059002A90C48FEF79AF84FF40060F5
:103AF000029000200390049002A90748FEF790F876
:103B000006B010BD0038014000100240000801401E
:103B10000044004000480040000C01402DE9F84FEF
:103B200004460E46174699464FF0000A94F84200A4
:103B300020284FD106B117B90120BDE8F88F002029
:103B40006064222084F8420000202063FEF706FA19
:103B50008246A785E785A068B0F5805F04D120691B
:103B600010B90025B04602E035464FF0000829E0C4
:103B70005346002220212046CDF8009001F0AEFDF2
:103B800008B10320D9E745B920684068C0F30800B0
:103B9000A8F8000008F1020811E0A068B0F5805F05
:103BA00003D0A06828B9206918B920684068287037
:103BB00004E02068406800F07F0028706D1CE08DF4
:103BC000401EE085E08D0028D2D1202084F84200FC
:103BD0000020B2E70220B0E72DE9F84F04460E4678
:103BE000174699464FF0000A94F8410020284AD120
:103BF00006B117B90120BDE8F88F002060642120CC
:103C000084F84100FEF7AAF98246A784E784A068F9
:103C1000B0F5805F04D1206910B90025B04602E0FC
:103C200035464FF000081BE0534600228021204615
:103C3000CDF8009001F052FD08B10320DBE745B953
:103C4000B8F80000C0F308002168486008F10208D5
:103C500003E02878216848606D1CE08C401EE084F9
:103C6000E08C0028E0D15346002240212046CDF8C8
:103C7000009001F033FD08B10320BCE7202084F858
:103C800041000020B7E70220B5E700BFFEE701468C
:103C900008684069C0F38020B0B16FF480600A68A2
:103CA000506100200863202081F83D00002081F849
:103CB0003E00086C40F00400086400BF002081F85A
:103CC0003C0000BF012070470020FCE72DE9F843CD
:103CD00004460F4615469946DDE9088620680068C7
:103CE00040F48060216808602068006840F48070BB
:103CF00021680860434600224FF0011120460096DB
:103D000000F037F960B12068006800F48070B0F509
:103D1000807F02D14FF4007020640320BDE8F88357
:103D200007F0FE0021680861334642463E492046BE
:103D300000F07EF908B10120F0E700BF00200090FC
:103D400020684069009020688069009000BF00BF33
:103D500032464146204600F02DFA50B1206C04282E
:103D600005D12068006840F40070216808600120D7
:103D7000D4E7B9F1010F03D1E8B22168086117E077
:103D8000C5F307202168086132464146204600F00D
:103D900011FA50B1206C042805D12068006840F465
:103DA0000070216808600120B8E7E8B22168086166
:103DB00032464146204600F0FDF950B1206C0428FF
:103DC00005D12068006840F4007021680860012077
:103DD000A4E72068006840F48070216808604346CA
:103DE00000224FF001112046009600F0C2F858B1B1
:103DF0002068006800F48070B0F5807F02D14FF435
:103E000000702064032089E7F8B240F001002168C7
:103E10000861334642460449204600F009F908B1DA
:103E200001207BE7002079E7020001002DE9F8433B
:103E30000446884615469946DDE90867206800680B
:103E400040F4807021680860334600224FF0011171
:103E50002046009700F08DF860B12068006800F4FB
:103E60008070B0F5807F02D14FF400702064032091
:103E7000BDE8F88308F0FE00216808613B46324641
:103E80002149204600F0D4F808B10120F0E700BF36
:103E900000200090206840690090206880690090B0
:103EA00000BF00BF3A463146204600F083F950B1CA
:103EB000206C042805D12068006840F40070216857
:103EC00008600120D4E7B9F1010F03D1E8B22168FD
:103ED000086117E0C5F30720216808613A463146BA
:103EE000204600F067F950B1206C042805D1206805
:103EF000006840F40070216808600120B8E7E8B26B
:103F0000216808610020B3E70200010070B5044693
:103F10000D46164625E02046FFF7B9FE08B1012000
:103F200070BD681CE8B1FEF719F8801BA84200D8E4
:103F3000BDB920684069C0F3800090B900202063BB
:103F4000202084F83D00002084F83E00206C40F0E2
:103F50002000206400BF002084F83C0000BF012046
:103F6000DEE720684069C0F380000028D3D000203D
:103F7000D6E72DE9F04104460D4617461E46DDF80A
:103F8000188038E0701CA8B3FDF7E8FFA0EB08002C
:103F9000B04200D876BBC5F3074001280AD120689B
:103FA0004069A9B20840A9B2884201D101200BE0C2
:103FB000002009E020688069A9B20840A9B28842BF
:103FC00001D1012000E00020B84214D1002020637C
:103FD000202084F83D00002084F83E00206C40F052
:103FE0002000206400BF002084F83C0000BF0120B6
:103FF000BDE8F081FFE7C5F3074001280AD120683A
:104000004069A9B20840A9B2884201D101200BE061
:10401000002009E020688069A9B20840A9B288425E
:1040200001D1012000E00020B842ABD00020DFE742
:104030002DE9F04104460D4616461F4658E020681B
:104040004069C0F38020E8B12068006840F4007047
:10405000216808606FF48060216848610020206357
:10406000202084F83D00002084F83E00206C40F0C1
:104070000400206400BF002084F83C0000BF012041
:10408000BDE8F081701C90B3FDF768FFC01BB04223
:1040900000D866BBC5F3074001280AD120684069F3
:1040A000A9B20840A9B2884201D101200BE000204A
:1040B00009E020688069A9B20840A9B2884201D10C
:1040C000012000E0002090B900202063202084F827
:1040D0003D00002084F83E00206C40F02000206469
:1040E00000BF002084F83C0000BF0120C8E7FFE7C4
:1040F000C5F3074001280AD120684069A9B20840E9
:10410000A9B2884201D101200BE0002009E020681B
:104110008069A9B20840A9B2884201D1012000E01B
:10412000002000288BD00020AAE770B504460D4679
:10413000164637E020684069C0F30010A0B16FF068
:1041400010002168486100202063202084F83D0091
:10415000002084F83E00206C206400BF002084F81A
:104160003C0000BF012070BDFDF7F8FE801BA84297
:1041700000D8BDB920684069C0F3801090B9002014
:104180002063202084F83D00002084F83E00206C4D
:1041900040F02000206400BF002084F83C0000BFF5
:1041A0000120E0E720684069C0F380100028C1D0FA
:1041B0000020D8E770B504460D46164625E0204697
:1041C000FFF765FD08B1012070BD681CE8B1FDF77F
:1041D000C5FE801BA84200D8BDB920684069C0F365
:1041E000C01090B900202063202084F83D000020FA
:1041F00084F83E00206C40F02000206400BF0020C6
:1042000084F83C0000BF0120DEE720684069C0F36D
:10421000C0100028D3D00020D6E7000010B500223F
:1042200008210248FDF794FE10BD0000000C01407B
:1042300010B5012208210448FDF78AFE4FF47A7078
:10424000FDF7DCFB10BD0000000C014010B500F0D4
:1042500023FF03A000F010F804A000F00DF810BD3B
:104260005043415330322C313030300050434153B1
:1042700030342C330000000070B5044600250120C6
:1042800003E0215C4D40411CC8B20028F9D12B4607
:10429000224608A10A4801F06DFA0948FBF7DCFF45
:1042A00086B24FF47A73324605490648FFF794FC0C
:1042B00070BD00002425732A253032780D0A0000D5
:1042C00088080020F803002038B5FF2000906946D8
:1042D000012000F00BF8182424F0100444F002042C
:1042E0002146C32000F040F838BD00003EB504462A
:1042F0000D46002220210D48FDF72AFE0520FDF77E
:104300007DFB4FF47A7001210B462246CDE9005126
:1043100002904F210648FDF721FF0122202103488A
:10432000FDF716FE0C20FDF769FB3EBD000C0140B9
:10433000F00200203EB5044602A9C420FFF7D6FFD4
:1043400001A9C520FFF7D2FF6946C620FFF7CEFFBF
:104350009DF8000000049DF8041040EA01209DF83B
:104360000810084320603EBD13B584B00446002207
:1043700020210E48FDF7ECFD0520FDF73FFB4FF433
:104380007A70012105AA0B46CDE900210290224650
:104390004E210748FEF794F8012220210348FDF73B
:1043A000D7FD0C20FDF72AFB06B010BD000C014024
:1043B000F00200200EB5012211032248FDF7C8FDCE
:1043C000002204212048FDF7C3FD0020034640F2EF
:1043D000C232114600901D4803F07EFC08B1012056
:1043E0000EBD40F2FF31194802F0C2FA08B10120B7
:1043F000F6E700200121FF230246CDE900100C2141
:10440000124803F067FD08B10120E9E702A90F484F
:1044100002F030FC08B10120E2E79DF8080040F00E
:10442000040002909DF80810084803F0BBFC08B196
:104430000120D5E7054802F0E5FA08B10120CFE7F1
:104440000020CDE700080140000C014028000020BA
:1044500008B500224FF480510E48FDF779FD012286
:1044600004210D48FDF774FD0020034640F281321F
:1044700011460090094803F02FFC08B1012008BD47
:1044800040F2FF31054802F073FA08B10120F6E767
:104490000020F4E700080140000C01402800002043
:1044A0001FB58E4802F0ACFC044614B18CA002F09B
:1044B000B3FE0121894803F0E9FF04462CB18EA028
:1044C00002F0AAFE854802F011FB0021834804F0A7
:1044D0001FF804462CB190A002F09EFE7F4802F027
:1044E00005FB01217D4803F0B3FE04462CB194A0E6
:1044F00002F092FE794802F0F9FA0322022177488D
:1045000003F016FE04462CB196A002F085FE734817
:1045100002F0ECFA3021714803F070FF04462CB130
:1045200098A002F079FE6D4802F0E0FA01216B4894
:1045300003F04AFE04462CB19DA002F06DFE6748D0
:1045400002F0D4FA00221121644804F0ADF80446C8
:104550002CB1A0A002F060FE604802F0C7FA002073
:1045600001230422092100905C4803F05DFC04460D
:104570002CB1A0A002F050FE584802F0B7FA03AAEE
:10458000A749564802F040FB04462CB1A5A002F012
:1045900043FE524802F0AAFA5048039903F09CFEE9
:1045A00004462CB1A9A002F037FE4C4802F09EFA56
:1045B00000221146494803F043FB04462CB1ACA04D
:1045C00002F02AFE454802F091FA0021434803F028
:1045D000DDFC04462CB1B1A002F01EFE3F4802F003
:1045E00085FA00231A4619463C4803F0CFFA0446E0
:1045F0002CB1B5A002F010FE384802F077FA374827
:1046000002F06CF904462CB1B7A002F005FE334865
:1046100002F06CFA43F24441304803F0FFFC0446D8
:104620002CB1BBA002F0F8FD2C4802F05FFA02A901
:104630002A4802F0A3FB04462CB1BEA002F0ECFD18
:10464000264802F053FA9DF8080040F0040002905A
:104650009DF80810214803F0E5FF04462CB1BEA0E8
:1046600002F0DAFD1D4802F041FA94211B4803F0E4
:1046700083FE04462CB1C1A002F0CEFD174802F023
:1046800035FA3821154803F011FD04462CB1C3A0BA
:1046900002F0C2FD114802F029FA01A90F4802F008
:1046A0002BFB04462CB1C4A002F0B6FD0B4802F06F
:1046B0001DFA9DF8040040F01E0001909DF80410C2
:1046C000064803F06DFF04462CB1C5A002F0A4FD1E
:1046D000024802F00BFAFFF76DFE1FBD2800002014
:1046E0006C6C636336383A20696E69742066616960
:1046F0006C65642E0A0000006C6C636336383A20E7
:10470000736574207374616E646279206661696C8C
:1047100065642E0A000000006C6C636336383A2032
:1047200073746F702074696D6572206F6E20707283
:1047300065616D626C65206661696C65642E0A0056
:104740006C6C636336383A207365742072656775E4
:104750006C61746F72206D6F6465206661696C6551
:10476000642E0A006C6C636336383A2073657420DB
:10477000706120636F6E666967206661696C65644D
:104780002E0A00006C6C636336383A20736574201F
:1047900072782074782066616C6C6261636B206D46
:1047A0006F6465206661696C65642E0A0000000014
:1047B0006C6C636336383A20736574207061636B88
:1047C00065742074797065206661696C65642E0A71
:1047D000000000006C6C636336383A207365742007
:1047E000747820706172616D73206661696C6564B4
:1047F0002E0A00006C6C636336383A2073657420AF
:104800006C6F7261206D6F64756C6174696F6E207E
:10481000706172616D73206661696C65642E0A0057
:1048200000389C1C6C6C636336383A20636F6E767C
:1048300065727420746F2072656769737465722085
:104840006661696C65642E0A000000006C6C63632D
:1048500036383A2073657420726620667265717509
:10486000656E6379206661696C65642E0A000000DC
:104870006C6C636336383A207365742062756666C3
:104880006572206261736520616464726573732070
:104890006661696C65642E0A000000006C6C6363DD
:1048A00036383A20736574206C6F72612073796DAD
:1048B00062206E756D2074696D656F757420666118
:1048C000696C65642E0A00006C6C636336383A20AC
:1048D0007265736574207374617473206661696CAA
:1048E00065642E0A000000006C6C636336383A2061
:1048F000636C6561722064657669636520657272B8
:104900006F7273206661696C65642E0A0000000096
:104910006C6C636336383A20736574206C6F726117
:104920002073796E6320776F7264206661696C65AD
:10493000642E0A006C6C636336383A206765742015
:104940007478206D6F64756C6174696F6E20666138
:10495000696C65642E0A00006C6C636336383A201B
:10496000736574207478206D6F64756C6174696F01
:104970006E206661696C65642E0A00006C6C63636E
:1049800036383A20736574207278206761696E202A
:104990006661696C65642E0A000000006C6C6363DC
:1049A00036383A20736574206F6370206661696CD5
:1049B00065642E0A000000006C6C636336383A2090
:1049C00067657420747820636C616D7020636F6E0E
:1049D000666967206661696C65642E0A00000000E4
:1049E0006C6C636336383A20736574207478206386
:1049F0006C616D7020636F6E666967206661696CBB
:104A000065642E0A0000000030B585B004460D46EE
:104A1000FFF71EFD002001A931C1049001200023F1
:104A20000C2201460090064802F0C6FE20B1FFF7B6
:104A3000C1FC012005B030BDFFF7BCFC0020F9E748
:104A40002800002010B588B0044620216846FBF7F6
:104A5000E6FB224608A1684600F08CFE684600F09E
:104A6000D7F809A10948FBF7E5FB10B9012008B008
:104A700010BD0020FBE7000041542B4E534F434C28
:104A80003D25640D0A0000004F4B0000480900203E
:104A900070B592B004460D461646402102A8FBF7B9
:104AA000BEFB2B46224609A102A8009600F062FE3A
:104AB00002A800F0ADF80AA10A48FBF7BBFB10B949
:104AC000012012B070BD0020FBE7000041542B4EC6
:104AD000534F434F3D25642C25732C25640D0A004C
:104AE0004F4B00004809002070B5044609A000F0B3
:104AF0008FF80EA10E48FBF79DFB08B9012070BD91
:104B00000CA10B48FBF796FB0546E879303820707E
:104B10000020F4E741542B4E534F43523D5354521F
:104B200045414D2C362C302C300D0A004F4B0000E7
:104B3000480900202B4E534F43523A0010B502A0B3
:104B400000F066F810BD000041542B464153544F0D
:104B500046463D300D0A000010B500F0ADF910BD1D
:104B600010B506A000F054F807A10A48FBF762FB55
:104B700008B9012010BD0020FCE7000041542B4380
:104B8000474154543F0D0A002B43474154543A3196
:104B9000000000004809002010B500F099FA00F06C
:104BA00009F802A000F034F810BD0000415445316E
:104BB0000D0A000070B511A42046FBF74DFB85B22D
:104BC0004FF47A732A4621460E48FFF705F840F65F
:104BD000B83380220C490B48FEF7A0FF0A48FBF7C8
:104BE0003BFB0A49088008460088002805DD0020B4
:104BF000088080210448FBF712FB70BD41542B5202
:104C0000420D0A0040040020C808002024000020B3
:104C100038B504462046FBF71FFB85B24FF47A7384
:104C20002A4621461D48FEF7D7FF1D4801881D482A
:104C3000FBF7F5FA00201A4908802BE01AA1194861
:104C4000FBF7F8FA20B919A11648FBF7F3FA00B1FF
:104C500021E04FF47A70174B8022174900900F48DB
:104C6000FEF7DDFD0F490E4A1288881811490A889F
:104C70001149FBF7BBFA0A4800880E490988084425
:104C8000074908800B4801880B48FBF7C8FA002049
:104C900008490880D2E700BF38BD0000400400206A
:104CA00026000020480900204F4B00004552524F7B
:104CB0005200000024000020C8080020F8B5064675
:104CC0000F460124052507E0FFF74AFF0446681E4A
:104CD000C5B26420FCF792FE012C01D1002DF3DC5B
:104CE000012C01D10120F8BD01240525FF200090F1
:104CF00008E06846FFF7F8FE0446681EC5B2642067
:104D0000FCF77CFE012C01D1002DF2DC012C01D13D
:104D10000120E8E7012405250CE04BF63A0225A125
:104D20009DF80000FFF7B4FE0446681EC5B264207B
:104D3000FCF764FE012C01D1002DEEDC012C05D125
:104D40009DF80000FFF77EFE0120CCE70124052539
:104D500008E03A4631469DF8000000F033F804467A
:104D6000681EC5B2012C01D1002DF2DC012C05D149
:104D70009DF80000FFF766FE0120B4E70124052539
:104D800009E09DF80000FFF75DFE0446681EC5B20D
:104D90006420FCF733FE012C01D1002DF1DC012C45
:104DA00001D101209FE74FF47A70FCF727FE002025
:104DB00099E700003131322E3132352E38392E3814
:104DC000000000002DE9FC5F804689461446012062
:104DD00000EB44001FFA80FAD346584600F044FD29
:104DE000054651462846FBF71AFA002608E019F84E
:104DF000062005EB46001EA100F0BCFC701C86B22C
:104E0000A642F4DB0120234642461BA1CDE9005017
:104E1000214800F0AFFC2048FFF7FAFE4FF4007184
:104E20001D48FBF7FCF9012342461CA11A4800F07B
:104E3000A1FCFF270AE00520FCF7E0FD1648FFF77C
:104E4000E7FE1B48008809381A490F5C302F01D053
:104E5000312FF0D1302F05D1284600F0D7FC0120AA
:104E6000BDE8FC9F284600F0D1FC0020F8E70000D8
:104E7000253032580000000041542B4E534F53440C
:104E80003D25642C25642C25732C30783230302C51
:104E900025640D0A00000000C809002041542B536E
:104EA000455155454E43453D25642C25640D0A006A
:104EB000260000204809002010B5012251030848AF
:104EC000FDF746F80520FCF799FD00224FF400514C
:104ED0000348FDF73DF80520FCF790FD10BD0000EC
:104EE000000C014000B585B00020019002900390B5
:104EF000049000BF3748806940F010003549886150
:104F00000846806900F01000009000BF00BF00BF9D
:104F10000846806940F0200088610846806900F0FA
:104F20002000009000BF00BF00BF0846806940F02D
:104F3000040088610846806900F00400009000BF0A
:104F400000BF00BF0846806940F00800886108463D
:104F5000806900F00800009000BF00BF012210210E
:104F60001D48FCF7F5FF002242F205011B48FCF743
:104F7000EFFF00224FF480511748FCF7E9FF0122B0
:104F800028211648FCF7E4FF41F2100001900120AF
:104F90000290002003900220049001A90E48FCF723
:104FA0003FFE42F22D00019001200290002003906C
:104FB0000220049001A90948FCF732FE022001906A
:104FC00000200290039001A90448FCF729FE05B0D7
:104FD00000BD00000010024000080140000C01402C
:104FE00010B50B480B4908600B4848600021094880
:104FF0008160C1604FF480410161002141618161A4
:10500000C1610162FCF7C2FF08B1FCF758FD10BD99
:1050100000540040F0020020A086010010B50E48A8
:105020000E4908604FF48270486000210B4881608F
:10503000C160016141614FF4007181611021C16162
:1050400000210162416281620A21C162FEF757F8C4
:1050500008B1FCF734FD10BD0030014058030020BA
:1050600010B50B480B4908604FF4E130486000214F
:1050700008488160C16001610C21416100218161AA
:10508000C161FEF760FC08B1FCF719FD10BD00001E
:1050900000380140B003002010B50B480B490860F0
:1050A0004FF416504860002108488160C1600161DA
:1050B0000C21416100218161C161FEF744FC08B10E
:1050C000FCF7FDFC10BD000000440040F803002088
:1050D00010B50B480B4908604FF41650486000218A
:1050E00008488160C16001610C214161002181613A
:1050F000C161FEF728FC08B1FCF7E1FC10BD00001F
:10510000004800404004002000BFFEE700BFFEE76B
:105110007047000008B508490968C9084FF47A7259
:10512000B1FBF2F14143009100BF00BF00994A1E5C
:1051300000920029F9D108BD0C000020014600BFF3
:10514000080900EB8000420001F00F001044C0B2DB
:1051500070470146002203E0521CA1F10A00C1B2CF
:105160000A29F9D2100741EA106070472DE9F0478B
:1051700006468846002700240025A146F77B747B5D
:10518000B57B00BF40E0012C0BD0032C09D0052CCF
:1051900007D0072C05D0082C03D00A2C01D00C2CEA
:1051A0000CD11F2D01D26D1C2CE00C2C02D0641CE4
:1051B000012527E0012401257F1C23E0042C05D0D4
:1051C000062C03D0092C01D00B2C06D11E2D01D2A8
:1051D0006D1C17E0641C012514E0022C12D11C2D5B
:1051E00001D26D1C0EE01C2D08D1B8B200F053F8AE
:1051F00008B16D1C06E0641C012503E01D2D01D1E2
:10520000641C012509F10109C145BCD3F77374730E
:10521000B573EAB2E1B2384600F07CF83073BDE80D
:10522000F08770B504460025FCF798FE054607E0B8
:10523000FCF794FE401BB0F57A7F01D9032070BDC6
:105240002068406800F020000028F1D02068406805
:1052500040F01000216848600020F0E770B5044677
:1052600000252068406820F0100021684860FCF7A5
:1052700075FE054607E0FCF771FE401BB0F57A7F2E
:1052800001D9032070BD2068406800F0200000288C
:10529000F1D00020F6E7014601F0030008B100203C
:1052A00070476420B1FBF0F200FB121008B101203E
:1052B000F6E74FF4C870B1FBF0F200FB121008B92A
:1052C0000120EDE70020EBE70146002200230868FB
:1052D000006A82B20868406A83B243EA02407047BB
:1052E00030B5014600220023002400200D68AD697E
:1052F000AAB20D68ED69ACB20D68AD69ABB29A4265
:1053000005D00D68ED6963F31F45284601E044EAC6
:10531000024030BDF0B504460B460021002504F5DF
:10532000FA61032B1BD2C3EBC30000EB0310092669
:10533000B0FBF6F01044001D4618481E06EB900620
:105340006427B0FBF7F0361A481EBF00B0FBF7F039
:1053500030440726B0FBF6F706FB17051AE0C3EB4F
:10536000C30000EB03100926B0FBF6F01044001D4B
:10537000084400EB91006426B1FBF6F6801B4FF465
:10538000C876B1FBF6F63044801E0726B0FBF6F770
:1053900006FB1705E8B2F0BD70B504460D460026C1
:1053A0002046FFF73EFF08B101260AE0280C2168DD
:1053B0000862A8B2216848622046FFF74FFF00B19B
:1053C0000126304670BD70B504460D4600262046C5
:1053D000FFF727FF08B101260AE0280C2168886141
:1053E000A8B22168C8612046FFF738FF00B1012646
:1053F000304670BDF8B504460E4615466068B0F5F7
:10540000827F0DD1A068B0F5004F03D0A068B0F541
:10541000806F05D12068006820F040002168086096
:105420006068B0F5827F11D1A068B0F5806F0DD1B2
:105430003346002201212046009500F02BF898B158
:10544000606D40F0200060650320F8BD3346002207
:1054500080212046009500F01DF828B1606D40F0D5
:10546000200060650320F0E70020EEE7F8B5044671
:105470000D4616462B46002280212046009600F05D
:1054800009F828B1606D40F0200060650320F8BD88
:105490000020FCE72DE9F84F04460D4690461E46D5
:1054A000DDF82890FCF75AFDA0EB0900371AFCF74D
:1054B00055FD82462C480068C0F3CB3078430090FD
:1054C00045E0701C002842D0FCF748FDA0EB0A0024
:1054D000B84200D2A7BB2068406820F0E0002168F5
:1054E00048606068B0F5827F0DD1A068B0F5004FCC
:1054F00003D0A068B0F5806F05D12068006820F067
:10550000400021680860A06AB0F5005F0DD100BFBF
:105510002068006820F40050216808602068006856
:1055200040F400502168086000BF012084F8510059
:1055300000BF002084F8500000BF0320BDE8F88FB2
:10554000FFE7009800B900270098401E00902068EF
:1055500080682840A84201D1012000E00020404599
:10556000AFD10020EAE700000C000020704710B522
:10557000FDF792F810BD00B58FB0282105A8FAF705
:105580004EFE14216846FAF74AFE012005900004F9
:105590000690002007900120099002200C90C10382
:1055A0000D914FF4E0110E9105A8FDF76FFA08B1C7
:1055B000FCF785FA0F200090022001900020029055
:1055C0004FF4806003900020049002216846FDF7AC
:1055D00039F908B1FCF773FA0FB000BD704700004D
:1055E00070B504462168096921F44051E26811430D
:1055F000226811612269A1681143626941EA0205CA
:105600002168C96841F20C62914329432268D16044
:105610002168496921F44071A269114322685161EE
:105620002D4A2168914202D1FDF7E8F901E0FDF72A
:10563000D5F900EBC00101EB001162689200B1FBEB
:10564000F2F100EBC00202EB001263689B00B2FBB8
:10565000F3F26423B2FBF3F202EBC20303EB021298
:10566000A1EB8201322202EB01116422B1FBF2F1C3
:1056700001F0F00100EBC00202EB001263689B0036
:10568000B2FBF3F26423B2FBF3F201EB021200EB84
:10569000C00101EB001163689B00B1FBF3F100EB6B
:1056A000C00303EB00136668B600B3FBF6F3642691
:1056B000B3FBF6F303EBC30606EB0313A1EB830185
:1056C000322303EB01116423B1FBF3F101F00F016D
:1056D00011442268916070BD003801402DE9F0410D
:1056E00004460D4617469846069E34E0701C88B363
:1056F0002EB1FCF733FCA0EB0800B0422BD900BF61
:1057000000BF21680C3151E8001F21F4D0702168DE
:105710000C3141E80002002AF3D100BF00BF00BFF6
:105720002168143151E8001F21F001002168143173
:1057300041E80002002AF3D100BF202084F8410094
:1057400084F8420000BF002084F8400000BF03201E
:10575000BDE8F081FFE7206800682840A84201D139
:10576000012000E00020B842C0D00020F0E700BFD8
:10577000FEE700000FB4084B10B504A902AA039875
:1057800000F08EF9044602A9002000F020FD20461A
:1057900010BC5DF814FB0000CF610008014B024A09
:1057A00000F07EB96D680008E002002041000802A8
:1057B00018BF04200A0E18BF40F001004FF07F42CE
:1057C00032EA010108BF40F00200012808BF0520AD
:1057D0007047000002480068C0F3022070470000D4
:1057E0000CED00E010B5002804DB0A07130E054A93
:1057F000135406E00A07140E034A00F00F031B1FA0
:10580000D45410BD00E400E018ED00E030B528B13C
:10581000144C031F002021680A4605E0084630BDED
:105820009A4203D810465268002AF9D1002800D0C5
:1058300041680BD00468A3EB0005A54204D11B68A6
:105840001C440346046002E0436000E023603AB178
:105850001C68D51AA54203D115682C441C605268F7
:105860005A6030BDE40200202DE9F04782460F4C1B
:1058700010480D4E0E4F001B4FF0000820F007059A
:105880004FF0010900221146504600F0FFFF0028AA
:1058900002D1306810B10020BDE8F0873C60C4E957
:1058A0000058C6F80090EDE7E80200205C0E0020EA
:1058B000E40200205810002000214FF07E50FAF73B
:1058C000EFBFFBF780BB00210846FAF7E9BF612173
:1058D0004FF0E040FBF7CFBB6FF05E010807FBF72E
:1058E000CABB02E008C8121F08C1002AFAD17047DB
:1058F0007047002001E001C1121F002AFBD1704750
:105900000149086070470000EC0200202DE9FF5FAC
:1059100082B00021DDE90430020DDDF840B0034320
:1059200018D044F61050A2F2FF32424315141198D9
:1059300001281FD0A5EB0B00401C5FEA000A4FF0C6
:1059400000064E4FDFF83891B046504615D5CAF1E3
:10595000000413E0119801244AA3012801D16FEA41
:105960000B010298119AC0E90031C0E9024206B069
:10597000BDE8F09FCBF10000DFE704460021404A7C
:10598000491842EB0450CDE9001012E0E00707D0BF
:1059900032463B4640464946FBF767F88046894613
:1059A00032463B4610461946FBF75FF806460F465F
:1059B0006410002CEAD1DDE90401DDE90023BAF12D
:1059C000000F06DAFBF751F842464B46FBF74DF85D
:1059D00005E0FBF7BCF842464B46FBF7B8F8044637
:1059E0000E460022284BFBF7A9F903D84FF0FF30F1
:1059F000014607E00022254B20463146FAF78EFF8C
:105A0000FBF7B7FB102409E0002C0ADB0A22002375
:105A1000FBF7C2F9039B30321A55641E50EA0102AB
:105A2000F2D1641C039AC4F111031444119A012A9F
:105A300003D0012208430DD10AE0084304D000201E
:105A40004FF0110B119072E7A3EB0B056D1E0DE0EB
:105A50005B4504DD4FF0000205F1010504E003DAC7
:105A60004FF00002A5F10105002AECD0029811992F
:105A7000C0E90231C0E9004579E7000000001440A8
:105A80000000F03F300000000000F0430000E03F65
:105A900030380A2801D201207047002070470000EA
:105AA0002DE9FF4F95B09B468946064600250FE23B
:105AB000252877D100242746F84A0121059400E0E3
:105AC000044316F8013F203B01FA03F01042F7D1DE
:105AD00030782A2811D06FF02F033078A0F13002EF
